:1000000000800020BD01000069C7010035C7010064
:1000100035C7010035C7010035C7010035C70100EC
:1000200035C7010035C7010035C7010069C70100A8
:1000300069C7010035C7010085DC010089DC0100CA
:1000400069C7010069C7010069C7010069C70100EC
:1000500069C7010069C7010069C7010069C70100DC
:1000600069C7010069C7010069C7010069C70100CC
:1000700069C7010069C7010069C7010069C70100BC
:1000800069C7010069C7010069C7010069C70100AC
:1000900069C7010069C7010069C7010069C701009C
:1000A00069C7010069C7010069C7010069C701008C
:1000B00069C7010069C7010069C7010069C701007C
:1000C00069C7010069C7010069C7010069C701006C
:1000D00069C7010069C7010069C7010069C701005C
:1000E00069C7010069C7010069C7010069C701004C
:1000F00069C7010069C7010069C7010069C701003C
:1001000069C7010069C7010069C7010069C701002B
:1001100069C7010069C7010069C7010069C701001B
:1001200069C7010069C7010069C7010069C701000B
:1001300069C7010069C7010069C70100DDB201009C
:1001400069C7010069C7010069C7010069C70100EB
:10015000A9C20100C5C20100E1C20100FDC2010047
:1001600069C7010029CC010069C7010069C7010006
:1001700069C7010069C7010069C7010069C70100BB
:1001800069C7010069C7010069C7010069C70100AB
:1001900069C7010069C7010069C7010069C701009B
:1001A00069C7010069C7010069C7010069C701008B
:1001B00069C7010069C7010069C70100584B4CF2CB
:1001C000205210B5DA814DF62812DA8100BF00BF47
:1001D0001CF0CEFA534B4FF010621A63524A9A63E6
:1001E000524ADA63524A136913F4807302BF5361AF
:1001F0004FF4A85313614F4B9A78100748BF9A7871
:100200004D4844BF42F008029A704C4B2A221A70A3
:100210004B4BDA1C121AC11E22F00302994288BF0E
:10022000002248491CF090F9474B4848DA1C121A42
:10023000C11E22F00302994288BF002200211CF057
:1002400057FA434943484FF4DE721CF07DF9424BA4
:10025000424A802103F8011B9342FBD14FF0E02377
:100260003C4AC3F8082D3E4B8A221A70A3F58053EE
:1002700024225A70A0221A709A799107FCD59A7993
:10028000D206FCD4374B9A7902F00C02082AFAD134
:1002900003221A7146225A719A799406FCD5314983
:1002A0008B795806FCD51F4B4FF082725A64092295
:1002B0009A6420220A708A7902F00C020C2AFAD180
:1002C000294A5A604FF0E023284A5A6100229A6175
:1002D00007221A61264AC3F8202D62B61CF0C6FA1E
:1002E000134B5B69DA0705D522481CF0B3FA224BA1
:1002F000224ADA61224B1B785B0609D51E4C1F4B44
:10030000E2699A4204D11B481CF0A4FA0023E3617D
:100310001CF034FA1FF0C4FA1CF00EF9FEE700BF1F
:100320000020054000800440823F04000100002BB3
:1003300000D0034000D00740408AFF1F00E0074084
:1003400074A0FF1F109702005822002078A0FF1F02
:10035000000000000084FF1F00E400E05FE400E014
:100360000050064000400640C0100500BFD4010008
:1003700000002020629EF66500E00340A5C3945A69
:1003800000F00740FFFFFFFFFFFFFFFFFFFFFFFF42
:10039000FFFFFFFFFFFFFFFFFFFFFFFFFFFFFFFF6D
:1003A000FFFFFFFFFFFFFFFFFFFFFFFFFFFFFFFF5D
:1003B000FFFFFFFFFFFFFFFFFFFFFFFFFFFFFFFF4D
:1003C000FFFFFFFFFFFFFFFFFFFFFFFFFFFFFFFF3D
:1003D000FFFFFFFFFFFFFFFFFFFFFFFFFFFFFFFF2D
:1003E000FFFFFFFFFFFFFFFFFFFFFFFFFFFFFFFF1D
:1003F000FFFFFFFFFFFFFFFFFFFFFFFFFFFFFFFF0D
:10040000FFFFFFFFFFFFFFFFFFFFFFFFDEF9FFFF23
:100410000548064B1B1AD90F01EBA301491002D066
:10042000034B03B11847704774A0FF1F74A0FF1F50
:100430000000000008B5054B1BB105490548AFF3A6
:100440000080BDE80840FFF7E3BF00BF00000000E8
:1004500078A0FF1F109702007047800390FBF1F017
:1004600050438013704783034FF41052484293FB6C
:10047000F2F34B43B0EBA33F4FEAA33203DC9142CC
:10048000A8BF11460846704737B502AB03E906001E
:10049000069A079BA1F1200502FA05F5C1F1200497
:1004A0008B4022FA04F42B4323438A40D0E90041D5
:1004B00014431943C0E9004103B030BD37B502AB66
:1004C00003E90600012311461C461A46994211D839
:1004D000D0E90035009CC4F1200005FA00F0A4F139
:1004E0002001E340034325FA01F10B4303EA020034
:1004F00003B030BD04FA03F52A430133E6E7FFFFFA
:10050000034B58609960184611461BF0EBBC00BFC6
:10051000E41D0020034B58609960184611461BF0FB
:100520003BBD00BFE41D0020014601481BF0DABCC2
:10053000E41D0020014601481BF02EBDE41D0020F3
:1005400038B51549642505FB00F28A426FF0630057
:100550004FF4C06392FBF3F3B8BF5B4293FBF5F536
:1005600000FB05340D4B0E488A42A8BF1846FFF722
:10057000DBFF2846FFF7DEFF0A48FFF7D5FF092C0F
:1005800002DC0948FFF7D0FF2046FFF7D3FFBDE8A4
:1005900038400648FFF7C8BF01FAFFFF325E02008D
:1005A0004F7C02003A120200760102005A53020008
:1005B000CB1000EBC310054B1A6801F007010123B3
:1005C0008B40115C0B431354704700BFE41D0020A7
:1005D00007B5009313460A46014603481BF04BFA41
:1005E00003B05DF804FB00BFE41D002007B50093D5
:1005F00013460A46014603481BF04FF903B05DF865
:1006000004FB00BFE41D002007B5009313460A4613
:10061000014603481BF02AFB03B05DF804FB00BF52
:10062000E41D002013B59DF81040CDE900341346B9
:100630000A46014602481BF08FFA02B010BD00BF07
:10064000E41D002007B5009313460A4601460348FF
:100650001BF036FA03B05DF804FB00BFE41D002078
:1006600013460822FFF7EEBF024A034900201DF09F
:10067000AFBF00BFE891FF1F5904000038B5002349
:100680004376184B017142F6E062012943F82120BC
:10069000044603D11AF010FE19F0F4FC257EFDB9D2
:1006A00001232376236820465B68984723790E4A06
:1006B0005B00DBB2981D03F10A04013352F82010ED
:1006C00042F82050DBB203F10A000633494242F8F7
:1006D000241052F8231042F82350494242F82010C7
:1006E00038BD00BFB8A1FF1FC0A1FF1F70B40849EB
:1006F0000479084E51F8243042F6E065013BB342DC
:10070000B8BF2B4641F82430036870BC9B6818477B
:10071000B8A1FF1F20D1FFFF036873B504461B6813
:10072000124D9847237903F001039B0101460133E1
:10073000022628466B60AE601BF0D4FB217901963F
:1007400001F001010A228901009201F13E032846CD
:100750001BF002FA627E23682AB11B6A204602B0AF
:10076000BDE870401847DB68F8E700BFE41D0020D3
:100770002DE9F843DFF8E890D9F8005007460E4617
:1007800090465DBB6C201CF011F8364904461222DD
:1007900022301BF0D9FE2422294604F134001BF03C
:1007A000A7FF0423E36584F8585084F860500822BA
:1007B000294604F161001BF09BFF42F28D03636048
:1007C0004FF48033A3607823E56025616561A561FE
:1007D000E56184F820502380C9F80040D9F8003042
:1007E000B8F1000F2FD11A7A12B15A7A82F00102B1
:1007F000397906EB41014C4204F0030401F0030097
:1008000058BF60420AB303EB4002B2F92220E2B1C2
:100810001A18127E32B9034493F8610088B100229D
:1008200083F861201048114B026801F11E041A314F
:1008300053F82150521B43F82420026843F821202A
:100840000120BDE8F8830022D2E7094A52F821408E
:10085000621E032ADFD8054A224412F8012CD9E788
:10086000F8ECFF1F2000020028A3FF1FC0A1FF1FFC
:10087000F491FF1F0B68036070470B6803607047BB
:10088000704710B504461BF0D7FC204610BD036826
:100890001847FFFF094B01685A684368D21A4B6832
:1008A0009A428B6838BF4A609A420B6888BF8A6058
:1008B000C3EBC3031344DB080B607047001000E078
:1008C00038B5134C206800F0D5FA606800F026FBBC
:1008D000A06800F077FBE06800F0C8FB0D490E4A05
:1008E0000B68206822F8130003F10800656822F8FD
:1008F000105003F11000A56822F8105003F1180001
:100900000133E46822F8104003F007030B6038BDA0
:10091000CCA4FF1FC4A4FF1FDCA4FF1F10B551F817
:10092000083B044640F8083B5B689847204610BDEA
:1009300010B5044650F8083BDB689847204610BDC8
:1009400090F8103C10B504469BB1002380F8103C91
:10095000D0F8083C03F0010303F540734FF48062C4
:1009600050F8231000F500601BF0EEFD012384F821
:10097000113CD4F8083C0133C4F8083C10BDFFFF1B
:10098000F0B5634C634D644F93B032201CF06CF8AB
:1009900026681DF017F92B780BB13B786BB92368EB
:1009A0002A789B1B1AB940F2EE22934201E0B3F57C
:1009B000FA6F02D81DF006F9EBE7584B002283F8D6
:1009C000582000F035FC19F057FA19F02DFB4FF4C0
:1009D000C8701CF049F8524800F0DCF800F01EF92D
:1009E000504800F097FB1AF053FE4F4AD2F8081C0B
:1009F000D2F80C3C5B1A0233F8D0D2F8083C03F072
:100A0000010303F5407352F823100029EED00122B0
:100A10004648444C464D474E1AF069FE43481AF08A
:100A200074FE4148FFF78CFF18F06CFC94F86400EA
:100A30001AF056FE19F058FB3F4819F083FCA16EDE
:100A40003D4801F0030119F0CBFB3C4B0293694692
:100A500006A80096FFF762FF06A90CA8FFF75EFF45
:100A600040F60F620CA928461BF08EFB0CA8FFF77E
:100A70005FFF06A8FFF75CFF6846FFF759FF29688C
:100A800050222A7121B12E4B0B441B112D495A546F
:100A90002D4B2E4D0293694606A80096FFF73EFFA8
:100AA00006A90CA8FFF73AFF4EF65F220CA92846CC
:100AB0001BF06AFB0CA8FFF73BFF06A8FFF738FF07
:100AC0006846FFF735FF296880222A7121B11C4B47
:100AD0000B441B111B495A54002317488DF8303022
:100AE0000CA919F07FFC1A4D0328287004D1124874
:100AF00018F06CFE01232B7094F86C100E4819F05E
:100B0000E9FB9DF8300017F077FA13B0F0BD00BF95
:100B1000681E0020481F0020E820002000E400E0BC
:100B2000800D0020280D0020C8110020E41D0020A9
:100B300010A3FF1F34000200141000207D8AFF1F45
:100B4000008FFCBF44E400E0418AFF1F1CA3FF1F8D
:100B50000C92FF1FF8B51BF089FC0A4D0A480B4C9C
:100B6000002780262A462146076006711DF030FDC9
:100B70000748067107602A462146BDE8F8401DF087
:100B800027BD00BFE891FF1F1CA3FF1F83080000C3
:100B900010A3FF1F10B54FF0FF32044600211A4882
:100BA0001AF0E8FA18484FF0FF3210211AF0EAFA6A
:100BB00015484FF0FF3204211AF0ECFA12484FF0BA
:100BC000FF3203211AF0EEFA0F484FF0FF320421F2
:100BD0001AF0F0FA0D4B0E481C60102200211BF099
:100BE00087FD102200210B481BF082FD00230A4ADA
:100BF0001946D1520233202BFBD1BDE810400248E8
:100C00004FF0FF311AF0DEBA34A3FF1F30A3FF1FED
:100C100098A4FF1FA8A4FF1F0082FF1F2DE9F04129
:100C2000324E334C306801211BF01CFA32683149D6
:100C30001368196030495960304919616FF01F011C
:100C4000002799614FF002081021D983C3F808806A
:100C5000D982DF60A3F81480137903F1804303F590
:100C60000433A8221F701A70336820681A68938BA7
:100C70009BB243F00803938301211BF0F3F925682D
:100C80001F4A2B6830681A601E4A5A606FF00702CC
:100C9000DA600422DA83DA821B4A1A6102689F61F1
:100CA000C3F808809F82D18B2B7989B25B0221F433
:100CB000F05103F4F0530B4343F40043D383D38B3D
:100CC0009BB2D382918B2B7989B21B0203F47063A0
:100CD00021F478610B4343F0200393830B4B02799B
:100CE000DA7622681279DA76BDE8F081B8A4FF1FBF
:100CF000BCA4FF1F10B00340000001010082FF1FD1
:100D0000440002000200010100B0034000800040E6
:100D1000884207DA044B1A68091A4FF44003B3FB00
:100D2000F1F31381704700BF30A3FF1F08B50748D8
:100D30001AF0F4F908201BF039FD054B1860082063
:100D40001BF034FD034B186008BD00BF34A3FF1F28
:100D5000B8A4FF1FBCA4FF1F032810B5044615D874
:100D600018230B4A4343D15CFF290FD10121D154F1
:100D700018F06EFA074B1B68162204FB0233821828
:100D800030F8021F23F8021B9042F9D110BD00BFBA
:100D9000C80C0020C8A4FF1F032810B40FD81822C5
:100DA00002FB00F1074B00245C54074910BC02FB16
:100DB0000033162200FB0211981C1BF0C5BB10BCAF
:100DC000704700BFC80C0020280D002010B500247B
:100DD000204618F03DFA037833B9E0B2FFF7DCFFA4
:100DE0000134042CF4D110BDFF2BF9D1E0B2FFF790
:100DF000B3FFF5E7014B185C704700BFC0A4FF1FAD
:100E000003299CBF014B5854704700BFC0A4FF1F6B
:100E100010B500220446D30024FA03F3D1B2D8B2AD
:100E20000132FFF7EDFF042AF5D110BD054A5178D4
:100E30001378D07843EA0123917843EA014343EAE7
:100E400000607047C0A4FF1F074B60221A70E122A8
:100E50005A70064AD36A43F48053D362044B80220B
:100E600083F82120704700BF004007400080044005
:100E700000C00C4010B52649264A0C78C0F57F40CA
:100E8000FF302304FCB143F0004343F010035363ED
:100E9000D36A03F47043B3F5405FF9D809781D4A6B
:100EA00080B20B04F1B91C490C6840F0C0502370AB
:100EB0004FF08053D3625063D36ADB00FCD50B68DC
:100EC00001221A7018E0144C246823704FF08053EC
:100ED000D36210235363D36A03F47043B3F5405FC6
:100EE000F9D8DBE7034343F080535363D36A03F439
:100EF0007043B3F5405FF9D8064BDA6A12F0F00F91
:100F0000FBD09A6BDA6A12F0F00FFBD09B6B10BD2E
:100F10005C1E002000C00240601E002010B5264963
:100F2000264A0C78C0F57F40FF302304FCB143F023
:100F3000004343F012035363D36A03F47043B3F5E1
:100F4000405FF9D809781D4A80B20B04F1B91C49F9
:100F50000C6840F0C05023704FF08053D362506350
:100F6000D36ADB00FCD50B6801221A7018E0144C20
:100F7000246823704FF08053D36212235363D36AE3
:100F800003F47043B3F5405FF9D8DBE7034343F064
:100F900080535363D36A03F47043B3F5405FF9D8C9
:100FA000064BDA6A12F0F00FFBD09A6BDA6A12F095
:100FB000F00FFBD09B6B10BD5C1E002000C00240F8
:100FC000601E002010B52649264A0C78C0F57F40E7
:100FD000FF302304FCB143F0004343F01403536398
:100FE000D36A03F47043B3F5405FF9D809781D4A1A
:100FF00080B20B04F1B91C490C6840F0C05023705A
:101000004FF08053D3625063D36ADB00FCD50B688A
:1010100001221A7018E0144C246823704FF080539A
:10102000D36214235363D36A03F47043B3F5405F70
:10103000F9D8DBE7034343F080535363D36A03F4E7
:101040007043B3F5405FF9D8064BDA6A12F0F00F3F
:10105000FBD09A6BDA6A12F0F00FFBD09B6B10BDDD
:101060005C1E002000C00240601E002010B5264912
:10107000264A0C78C0F57F40FF302304FCB143F0D2
:10108000004343F016035363D36A03F47043B3F58C
:10109000405FF9D809781D4A80B20B04F1B91C49A8
:1010A0000C6840F0C05023704FF08053D3625063FF
:1010B000D36ADB00FCD50B6801221A7018E0144CCF
:1010C000246823704FF08053D36216235363D36A8E
:1010D00003F47043B3F5405FF9D8DBE7034343F013
:1010E00080535363D36A03F47043B3F5405FF9D878
:1010F000064BDA6A12F0F00FFBD09A6BDA6A12F044
:10110000F00FFBD09B6B10BD5C1E002000C00240A6
:10111000601E0020384B70B5384D18600020FFF776
:1011200077FE6B6D2A6D01244FF4A07682F8804221
:101130001E601A6822F020021A60FFF785FE304B0D
:1011400040F6C8221A800A201BF08EFCEB6CAA6CB9
:1011500082F880421E601A6822F020021A6021463E
:1011600009201BF0D1FB274B2748002140221960A2
:101170001BF0BEFA254A2649D36B264843F4805318
:10118000D363254B254A1A604FF03842DA604FF09E
:1011900078421A614FF400720A61047020481860A6
:1011A000204B1878C0074DBF1F494FF410728A6159
:1011B0008A601A7812F0020F0CBF15491A494FF4D1
:1011C00000720CBFCA61CA601B785B0755BF104B29
:1011D000154B4FF410724FF4007254BF5A615A60AD
:1011E000124A4FF6FF7383F310031360536093604A
:1011F000D360FFF765FB70BDC8A4FF1FE094020039
:1012000000C00C40C4A4FF1FDCA4FF1F00800440EA
:1012100000B004405C1E002000C0024001401F805E
:10122000000C1F80641E002000C00440CCA4FF1FDF
:10123000134AD36B43F48053D363124B4FF41072B1
:101240009A615A61A3F5F8330F4A1A601A6842F49A
:1012500040621A601A6812F4804F4FF0384004D090
:101260004FF07842D8601A61704742F4804141F0F3
:10127000010119604FF07841D86019611A60704718
:101280000080044000B0044000001F801BF0EEB856
:1012900030B581EAE1750246A5EBE17500200A242C
:1012A0009542BCBF831DD8B2132A92FBF4F305DC30
:1012B000002902DA08B10638C0B230BD1A46EFE79D
:1012C000004870474C00020030B519220023142555
:1012D0001E2478218263C2634FF0FF32C36105622E
:1012E000846201634562C462416343648364C3648E
:1012F000026542658365C365A0F8603030BDC36C8C
:1013000000EB830384B01A6A00929A6A01921A6B06
:10131000C06902929A6B039204AA02EB800050F813
:10132000102C0A44FF2AA8BFFF22012AB8BF0122BD
:1013300040F8102C009A1A62019A9A62029A1A6373
:10134000039A9A6304B07047044B8360044BC360F4
:10135000044B0361044B4361704700BF540002001B
:101360006500020075000200850002000048704719
:101370008D0002000023C361036232238363C363D1
:101380007047436AC3F1010343627047044B8360B3
:10139000044BC360044B0361044B4361704700BFBF
:1013A00093000200A6000200B6000200C500020081
:1013B00000487047D2000200044B8360044BC360B6
:1013C000044B0361044B4361704700BFD800020027
:1013D000E9000200FA000200020102000048704722
:1013E0000E0102003F23036243627047044B836097
:1013F000044BC360044B0361044B4361704700BF5F
:1014000017010200210102002F0102003B0102002E
:10141000004870474E0102007047704700200021CD
:1014200070477047044B8360044BC360044B0361F7
:10143000044B4361704700BF58010200680102007D
:1014400078010200A01102000048704789010200E3
:10145000044B8360044BC360044B0361044B436142
:10146000704700BF930102009C010200AD01020021
:10147000BC01020000487047C70102003223C3616B
:10148000002343627047436AC3F10103436270471C
:10149000C3690B44642BA8BF642323EAE373C361CD
:1014A0007047FFFF044B8360044BC360044B036130
:1014B000044B4361704700BFD0010200DD01020010
:1014C000E5010200F401020000487047FA01020041
:1014D000044B8360044BC360044B0361044B4361C2
:1014E000704700BF0302020015020200270202003B
:1014F00039020200004870474E0202000422826353
:1015000032220023C2630122C361436280F82C307F
:1015100043630264A0F844307047FFFF044B8360CC
:10152000044BC360044B0361044B4361704700BF2D
:101530004402020054020200670202007602020026
:1015400000487047890202000023036270470020B0
:10155000002170477047FFFF044B8360044BC3605A
:10156000044B0361044B4361704700BF91020200CA
:10157000A0110200A2020200B402020090F824307E
:1015800003441A7F82F001021A7701229A7640F210
:10159000836303627047FFFF00487047C602020082
:1015A000044B8360044BC360044B0361044B4361F1
:1015B000704700BFCC020200DC020200ED02020014
:1015C000FF0202008842A8BF084670478842B8BFA1
:1015D000084670470844B0F5105F044BA8BF4FF4AD
:1015E00010509842B8BF1846704700BF00DCFFFF9C
:1015F00088420346A8BF0B468842ACBFC3EB00003D
:10160000C3EB01007047084400EBD07040107047F6
:10161000004870471003020000230122C3650266E0
:101620004366A0F868307047044B8360044BC36086
:10163000044B0361044B4361704700BF1A0302006F
:101640001F0302002B0302003C0302000048704706
:1016500046030200002380F8203003767047FFFF26
:10166000044B8360044BC360044B0361044B436130
:10167000704700BF4E0302005603020067030200DA
:1016800079030200004870478C030200044B83601A
:10169000044BC360044B0361044B4361704700BFBC
:1016A000CC020200960302009E030200B003020077
:1016B00000487047C3030200044B8360044BC360BF
:1016C000044B0361044B4361704700BFCD0302002C
:1016D000DE030200ED030200FF0302000048704732
:1016E0001104020002230377042380F83C30704782
:1016F000044B8360044BC360044B0361044B4361A0
:10170000704700BFCC0202001B0402002C04020040
:101710003C04020000487047450402007047FFFF88
:10172000024B8360C360036143617047A0110200F4
:10173000004870474E040200642343834B22002379
:101740000362828343627047034B044A83600361F0
:10175000034BC260436170475804020067040200F3
:10176000F401020000487047760402008023C36140
:101770000023036270477047C3690B4483F3080377
:10178000C3617047044B8360044BC360044B036127
:10179000044B4361704700BFA01102007E040200A9
:1017A00090040200A304020000487047AD04020048
:1017B0007047FFFF044B8360044BC360044B03611D
:1017C000044B4361704700BFB4040200C50402002B
:1017D000D4040200E404020000487047F60402004A
:1017E000002380F85830024B1B68C366704700BF67
:1017F00028A3FF1F044B8360044BC360044B0361A9
:10180000044B4361704700BFFE040200B2050200B2
:101810001005020023050200004870473105020050
:10182000044B8360044BC360044B0361044B43616E
:10183000704700BF3B0502004D0502005C05020039
:101840006E0502000048704779050200034B836073
:10185000034BC3600361034B436170478005020083
:10186000B20502009105020000487047A40502007D
:10187000002383677047FFFF044B8360044BC36002
:10188000044B0361044B4361704700BFCC0202006C
:10189000AE050200BD050200CC05020000487047FD
:1018A000DF050200044B8360044BC360044B0361FB
:1018B000044B4361704700BF4E030200E90502007C
:1018C000B2050200FC050200004870470C06020049
:1018D000044B8360044BC360044B0361044B4361BE
:1018E000704700BF3B0502004D0502005C05020089
:1018F0006E050200004870471606020000230362CE
:101900004362034BC363A62380F82830704700BFAF
:101910000A0A0001044B8360044BC360044B03615B
:10192000044B4361704700BFA01102002401020074
:10193000200602002C060200004870473E06020006
:10194000044B8360044BC360044B0361044B43614D
:10195000704700BFCC020200B2050200460602003A
:1019600058060200004870476806020038B54FF478
:10197000807504462A4600211C301AF0B9FE2A461A
:10198000002104F58E701AF0B3FE4FF47A73C4F898
:101990001C32C4F820320023C4F82432C4F82832A0
:1019A000C4F82C32C4F83032A4F8343238BDFFFF0A
:1019B000044B8360044BC360044B0361044B4361DD
:1019C000704700BF720602007D0602008E0602000C
:1019D0009A06020000487047A30602000023C36174
:1019E0000362704770470020002170477047FFFF77
:1019F000044B8360044BC360044B0361044B43619D
:101A0000704700BFAD060200C0060200D206020009
:101A1000E506020000487047F5060200042380F83E
:101A20002930012303637047044B8360044BC36078
:101A3000044B0361044B4361704700BFFF06020083
:101A40001107020023070200350702000840704713
:101A50000843704748407047084080F001007047D5
:101A6000084380F001007047484080F00100704753
:101A70000020704700487047480702000023836633
:101A80004365022383657047044B8360044BC36046
:101A9000044B0361044B4361704700BF4E070200D3
:101AA0005B0702002B0302003C0302000048704762
:101AB0006D07020080230362402343627047FFFFEB
:101AC000044B8360044BC360044B0361044B4361CC
:101AD000704700BF770702008807020095070200E1
:101AE0009D07020000487047A60702007047704734
:101AF000C3691A88114489B2B1F5967F28BF4FF4A3
:101B00009671012938BF0121024A1980B2FBF1F216
:101B10005A60704740420F00002000217047704714
:101B2000034B8360C360034B0361034B4361704706
:101B3000A0110200B0070200C2070200004870476F
:101B4000C80702007F23036270477047036A0B4493
:101B500083F3080303627047044B8360044BC36044
:101B6000044B0361044B4361704700BFA0110200A6
:101B7000D2070200DE070200EF07020000487047AC
:101B8000F7070200044B8360044BC360044B0361FE
:101B9000044B4361704700BF0208020015080200B1
:101BA000260802003608020000487047420802007A
:101BB0000021102380F86C100367C16540221C309F
:101BC0001AF096BD044B8360044BC360044B036161
:101BD000044B4361704700BF4D0802005D080200DE
:101BE000700802008308020000487047960802004F
:101BF000044B8360044BC360044B0361044B43619B
:101C0000704700BF9E080200A9080200B408020045
:101C1000BF08020000487047C60802007047FFFF77
:101C2000044B8360044BC360044B0361044B43616A
:101C3000704700BFB4040200C5040200D4040200CF
:101C4000CE08020000487047DF080200044B8360A2
:101C5000044BC360044B0361044B4361704700BFF6
:101C6000B4040200E7080200F90802000A090200B1
:101C70000048704717090200012383650C230365A0
:101C8000002303667047FFFF044B8360044BC3606F
:101C9000044B0361044B4361704700BF21090200FC
:101CA0003309020046090200540902000048704747
:101CB000670902000622002382630822C3610362CF
:101CC00043628262C36203637047FFFF034B044AAF
:101CD00083600361034BC260436170477009020077
:101CE0007D09020086090200004870479909020038
:101CF000044B8360044BC360044B0361044B43619A
:101D0000704700BFA1090200B3090200C209020026
:101D1000D209020000487047E10902004FF4406315
:101D2000838370477047838B03EBC11189B2B1F590
:101D3000C06F06D3B1F5F05FA8BF4FF4F0518183B7
:101D400070474FF4C061FAE7044B8360044BC360F3
:101D5000044B0361044B4361704700BFD80002008D
:101D6000EB090200F4090200030A02000048704770
:101D70000D0A0200044B8360044BC360044B0361F3
:101D8000044B4361704700BF170A02002A0A020091
:101D90003C0A02004B0A0200004870475B0A02003E
:101DA0000023C3614362014B83627047800C800F44
:101DB000C269022A02F1010308BF0023C361704710
:101DC000044B8360044BC360044B0361044B4361C9
:101DD000704700BFA011020021010200650A020045
:101DE000750A020000487047850A0200074B1B680D
:101DF000C3614FF4A07200230362C0F8B42080F8DE
:101E00002830C0F8C4300363C362704728A3FF1FA3
:101E10000020002170477047044B8360044BC3606F
:101E2000044B0361044B4361704700BF8B0A0200FF
:101E30001F0302009E0A0200AA0A0200004870471F
:101E4000BC0A0200044B8360044BC360044B036173
:101E5000044B4361704700BFCC020200C60A020077
:101E6000D70A0200E90A020000487047FB0A020094
:101E7000044B8360044BC360044B0361044B436118
:101E8000704700BFD8000200050B0200180B0200CB
:101E9000290B020000487047350B0200044B836099
:101EA000044BC360044B0361044B4361704700BFA4
:101EB000CC0202003E0B02004A0B0200590B02004A
:101EC00000487047690B02000023012280F820308F
:101ED000C2614362036343638363C3637047FFFF6D
:101EE000044B8360044BC360044B0361044B4361A8
:101EF000704700BFCC020200710B0200820B02008F
:101F0000950B020000487047A40B020000234362B7
:101F100083623223C36103627047C36AC3F1010362
:101F2000C3627047044B8360044BC360044B03617E
:101F3000044B4361704700BFA90B0200BC0B0200B9
:101F4000CE0B0200DD0B020000487047E70B0200D9
:101F5000044B8360044BC360044B0361044B436137
:101F6000704700BFEF0B0200020C0200150C0200CC
:101F7000230C0200004870472F0C020000230122AE
:101F8000C36242838383837703624362038580F85D
:101F90002A307047044B8360044BC360044B0361D9
:101FA000044B4361704700BFCC020200360C0200B4
:101FB000490C0200580C020000487047670C0200F0
:101FC000012303624362704770477047002000217D
:101FD00070477047044B8360044BC360044B03613C
:101FE000044B4361704700BF6E0C02007D0C020081
:101FF000840C0200A011020000487047960C0200F9
:10200000044B8360044BC360044B0361044B436186
:10201000704700BF9D0C0200AD0C0200C00C020016
:10202000D20C020000487047E40C02000023C36396
:102030000364A0F846304FF4807283632823A0F82D
:102040004820C3647047FFFF044B8360044BC360A8
:10205000044B0361044B4361704700BFA0110200B1
:10206000ED0C0200F80C0200070D0200004870475A
:102070001A0D0200836B022B10B5CCBF6FF0020467
:1020800000241C44CCBF01220022022C0AD1022BC6
:10209000CCBF042300231844036B0B4483F30303D6
:1020A000036310BD1044A30090F82C2042FA03F300
:1020B000194401F00F012CB922F00F02114380F8EE
:1020C0002C10EEE702F00F0202EB011280F82C2038
:1020D000E7E7FFFF044B8360044BC360044B0361DD
:1020E000044B4361704700BFCC020200220D020086
:1020F000320D0200D209020000487047420D020072
:10210000044B8360044BC360044B0361044B436185
:10211000704700BFCC020200220D02004C0D0200ED
:10212000D2090200004870475C0D020003685B683A
:102130001847436B0B44B3F5FA7FA8BF4FF4FA730B
:10214000B3F5C87FB8BF4FF4C87343637047FFFF50
:1021500000487047620D0200044B8360044BC3606B
:10216000044B0361044B4361704700BF6B0D0200D9
:10217000A0110200740D02007C0D0200004870479F
:102180008B0D0200044B8360044BC360044B03615E
:10219000044B4361704700BF950D02009E0D020085
:1021A000B10D02007C0D020000487047C00D020016
:1021B000044B8360044BC360044B0361044B4361D5
:1021C000704700BFCA0D0200D60D0200740D020058
:1021D0007C0D020000487047E00D0200044B836054
:1021E000044BC360044B0361044B4361704700BF61
:1021F000A0110200EA0D0200740D0200F40D0200AD
:1022000000487047030E02003C2343626FF0230333
:102210008362002383857047044B8360044BC36053
:10222000044B0361044B4361704700BF0B0E020077
:10223000A0110200140E0200200E02000048704798
:102240002F0E0200034B8360C360034B0361034BFB
:1022500043617047A0110200B2050200360E020071
:1022600000487047490E020000230122C3618363C6
:10227000036280F83C3043628262C0F8AC30704741
:10228000044B8360044BC360044B0361044B436104
:10229000704700BF510E0200580E0200A01102004C
:1022A000690E0200802070477047002070470020B0
:1022B0007047FFFF012802BF014B0022DA80704700
:1022C0002CA7FF1F70477047704770477047FFFF8C
:1022D000C36A10B50446A3B9C369C818C828A8BF03
:1022E000C82020EAE070E0614FF47A42C821FEF78E
:1022F000B4F8112390FBF3F0064B20631B68636373
:1023000010BD036AC818C828A8BFC82020EAE0701A
:102310002062E9E728A3FF1FC36910B50446C81867
:102320006428A8BF642020EAE070E0614FF41052F6
:102330006421FEF792F8206210BDFFFF436A10B5DA
:1023400004468BB9836BC81880F30800A06348F279
:102350003522FF21FEF781F8112390FBF3F0054BA6
:10236000A0621B68E36210BDC36BC81880F308004D
:10237000E063ECE728A3FF1F30B589B00425CDE961
:102380000023002304462A4619466846CDE9023553
:10239000FEF794F80323E0611A4629466846059340
:1023A0000495FEF78BF807220123CDE9062308AB3D
:1023B000206213E906006846FEF780F8A06209B0C3
:1023C00030BDFFFFF0B58FB00427CDE900230679BB
:1023D0002C4C0023054619463A466846CDE902379B
:1023E0007600FEF76BF804EB86063A46C6F89C00CA
:1023F0002E7939466846CDE904777600FEF75EF817
:1024000004EB860603270823C6F8A0002E793A4677
:1024100019466846CDE906377600FEF74FF804EB1B
:1024200086060B23C6F8AC002E793A461946684654
:10243000CDE908377600FEF741F804EB86060E2357
:10244000C6F8B0000726324619466846CDE90A3676
:10245000FEF734F82B7904EBC3030138C3F8BC0052
:102460001523CDE90C360EAB13E906006846FEF7DE
:1024700025F82B7904EBC3040138C4F8C0000FB071
:10248000F0BD00BFC0A1FF1F30B58BB00925CDE95D
:102490000023002304462A4619466846CDE9023542
:1024A000FEF70CF80A23A0F5807060622A461946F0
:1024B0006846CDE90435FEF701F801251323A0F5A0
:1024C0008070A0622A4619466846CDE90635FDF7B8
:1024D000F5FF1423CDE90835003818BF01200AABF9
:1024E00084F82C0013E906006846FDF7E7FF003882
:1024F00018BF012084F82D000BB030BD1FB5CDE909
:10250000002300221023CDE902236B44044613E983
:1025100006006846FDF7D2FF606304B010BD30B519
:1025200089B00825CDE900230023044619462A4630
:102530006846CDE90235FDF7C1FF2A4684F824003C
:1025400029466846CDE90455FDF7B8FF102204235B
:10255000CDE9062308AB13E9060084F82500684698
:10256000FDF7ACFF4FF0FF33A062E36109B030BD6F
:1025700030B58BB00825CDE9002300230446194669
:102580002A466846CDE90235FDF798FF2A4684F8C9
:102590002C0029466846CDE90455FDF78FFF032539
:1025A000102384F82D002A4619466846CDE90635E1
:1025B000FDF784FF1323CDE908350AAB13E90600C4
:1025C00020636846FDF77AFF4FF0FF336063E361F5
:1025D00023620BB030BD30B589B00425CDE90023AE
:1025E0000023044619462A466846CDE90235FDF720
:1025F00065FF2A4684F8480029466846CDE9045517
:10260000FDF75CFF0823CDE9063308AB84F84900E9
:1026100013E906006846FDF751FFE06409B030BDDC
:1026200030B587B0CDE900230825002304462A46AB
:1026300019466846CDE90235FDF740FFCDE904555E
:1026400006ABE06113E906006846FDF737FF20623C
:1026500007B030BD30B587B0CDE900230725002392
:1026600004462A4619466846CDE90235FDF726FF9D
:10267000CDE9045506ABA08713E906006846FDF7CF
:102680001DFFE08707B030BD30B58DB00425CDE922
:1026900000230023044619462A466846CDE9023540
:1026A000FDF70CFF013084F824002A4629466846CD
:1026B000CDE90455FDF702FF01250823013084F818
:1026C00025002A4619466846CDE90635FDF7F6FE8F
:1026D000003818BF0120092384F826002A4619462D
:1026E0006846CDE90835FDF7E9FE1023CDE90A3348
:1026F000003818BF01200CAB84F8270013E906004E
:102700006846FDF7DBFE20840DB030BD30B587B0E4
:10271000CDE900231025002304462A4619466846C1
:10272000CDE90235FDF7CAFECDE9045506AB20859B
:1027300013E906006846FDF7C1FE608507B030BDAD
:102740001FB5CDE9002300221023CDE902236B44FD
:10275000044613E906006846FDF7B0FEA08304B006
:1027600010BD30B589B00525CDE90023002304460E
:1027700019462A466846CDE90235FDF79FFE01302D
:10278000A0622A4629466846CDE90455FDF796FE23
:102790000A220723CDE9062308AB206313E90600CC
:1027A0006846FDF78BFEA06309B030BD30B59FB021
:1027B0000425CDE900230023044619462A4668462D
:1027C000CDE90235FDF77AFE2A46206229466846A1
:1027D000CDE90455FDF772FE082360622A461946CA
:1027E0006846CDE90635FDF769FE0C23A0622A464E
:1027F00019466846CDE90835FDF760FE1023E06212
:102800002A4619466846CDE90A35FDF757FE1423D6
:1028100020632A4619466846CDE90C35FDF74EFE81
:10282000182360632A4619466846CDE90E35FDF740
:1028300045FE1C23A0632A4619466846CDE910359B
:10284000FDF73CFE2023E0632A4619466846CDE9A1
:102850001235FDF733FE242320642A4619466846C4
:10286000CDE91435FDF72AFE282360642A4619466F
:102870006846CDE91635FDF721FE2C23A0642A46D3
:1028800019466846CDE91835FDF718FE06253023B0
:10289000E0642A4619466846CDE91A35FDF70EFE72
:1028A0003623CDE91C351EABA06513E9060068464A
:1028B000FDF704FE20651FB030BD30B593B006258E
:1028C000CDE900230023044619462A466846CDE98F
:1028D0000235FDF7F3FD2A4684F8250029466846AF
:1028E000CDE90455FDF7EAFD0C2384F826002A46BD
:1028F00019466846CDE90635FDF7E0FD12230130A3
:1029000084F827002A4619466846CDE90835FDF7C0
:10291000D5FD182384F831002A4619466846CDE9CA
:102920000A35FDF7CBFD1E2384F832002A461946EE
:102930006846CDE90C35FDF7C1FD0823013024229E
:10294000CDE90E2384F833001A4624216846FDF7AA
:10295000B5FD2C210423CDE9101312ABE06313E97C
:1029600006006846FDF7AAFD84F8400013B030BDAC
:1029700030B589B00725CDE9002300230446194668
:102980002A466846CDE90235FDF798FD2A4660677C
:1029900029466846CDE90455FDF790FD0E22042333
:1029A000CDE9062308ABA06713E906006846FDF7EA
:1029B00085FD0130206709B030BD1FB5CDE900238A
:1029C00000220823CDE9022304AB044613E90600E4
:1029D0006846FDF773FD206204B010BD30B587B0C6
:1029E000CDE900230825002304462A4619466846F7
:1029F000CDE90235FDF762FDCDE9045506AB206255
:102A000013E906006846FDF759FD606207B030BD66
:102A100030B587B0CDE900230825002304462A46B7
:102A200019466846CDE90235FDF748FDCDE9045564
:102A300006AB606513E906006846FDF73FFDA0653B
:102A400007B030BD30B58BB00725CDE9002300239A
:102A5000044619462A466846CDE90235FDF72EFDA3
:102A60002A4684F8260029466846CDE90455FDF734
:102A700025FD05230E22CDE9062384F827001A46FA
:102A80000E216846FDF71AFD13210423CDE9081332
:102A90000AAB84F82A0013E906006846FDF70EFD2C
:102AA000E0620BB030BD30B587B0CDE900230B2517
:102AB000002304462A4619466846CDE90235FDF74B
:102AC000FDFCCDE9045506ABC4F81C0213E9060071
:102AD0006846FDF7F3FCC4F8200207B030BD2DE9CD
:102AE000F0418CB0CDE900230625074600F12B0408
:102AF0002E460DF10808AB1FCDE90236684698E86E
:102B00000600FDF7DBFC431CDBB204F8013F29465D
:102B1000237232466846CDE90456FDF7CFFCAB1D63
:102B2000C0B21946A070A07232466846CDE906369A
:102B3000FDF7C4FC05F10C03C0B2194620712073E7
:102B400032466846CDE90836FDF7B8FC05F11203B8
:102B5000CDE90A36C0B20CABA071A07313E9060030
:102B60006846FDF7ABFC1E35422D2074C3D100230F
:102B7000FB610CB0BDE8F08130B58DB00525CDE925
:102B800000230023044619462A466846CDE902354B
:102B9000FDF794FC2A4684F83C0029466846CDE9B6
:102BA0000455FDF78BFC01250A2384F83D002A46D5
:102BB00019466846CDE90635FDF780FC003818BF98
:102BC00001200B2384F83E002A4619466846CDE9C9
:102BD0000835FDF773FC0C220423CDE90A230038E5
:102BE00018BF01200CAB84F83F0013E906006846CB
:102BF000FDF764FC28441028A8BF1020A842B8BFE5
:102C0000284620640DB030BD30B58FB0CDE900232B
:102C1000102500230446036619462A466846029397
:102C20000395FDF74BFC0495A0F500400725A4F89B
:102C300040002A46102168460595FDF73FFC172302
:102C400060642A4619466846CDE90635FDF736FC2C
:102C50001E23A0642A4619466846CDE90835FDF7CB
:102C60002DFC04252523E0642A4619466846CDE953
:102C70000A35FDF723FC2923CDE90C350EAB84F88A
:102C8000640013E906006846FDF718FC84F8650047
:102C90000FB030BD1FB5CDE9002300220823CDE9D8
:102CA000022304AB044613E906006846FDF706FC60
:102CB000E06104B010BD30B587B0CDE90023072531
:102CC000002304462A4619466846CDE90235FDF739
:102CD000F5FBCDE9045506AB608313E906006846B1
:102CE000FDF7ECFBA08307B030BD30B58FB00A25EF
:102CF000CDE900230023044619462A466846CDE95B
:102D00000235FDF7DBFBA0F5FA7060622A46294622
:102D10006846CDE90455FDF7D1FB08251423A0F53D
:102D2000FA70A0622A4619466846CDE90635FDF7D5
:102D3000C5FB1C236438E0622A4619466846CDE983
:102D40000835FDF7BBFB07252423643820632A469A
:102D500019466846CDE90A35FDF7B0FB2B23CDE9CE
:102D60000C3524380EAB606313E906006846FDF7A6
:102D7000A5FB2438A0630FB030BD30B587B0CDE9D6
:102D800000230825002304462A4619466846CDE953
:102D90000235FDF793FBCDE9045506ABE06513E979
:102DA00006006846FDF78AFB206607B030BD30B5E7
:102DB00089B00925CDE900230023044619462A4697
:102DC0006846CDE90235FDF779FB2A46A4F8A4064A
:102DD00029466846CDE90455FDF770FB1222012310
:102DE000CDE9062308ABA4F8A60613E90600684659
:102DF000FDF764FB003818BF012084F89C0609B079
:102E000030BD30B58DB00825CDE900230023044640
:102E100019462A466846CDE90235FDF74FFB2A469A
:102E2000A06329466846CDE90455FDF747FB10230A
:102E3000E0632A4619466846CDE90635FDF73EFBB4
:102E40001823083820642A4619466846CDE9083513
:102E5000FDF734FB2023CDE90A350CAB84F845009F
:102E600013E906006846FDF729FB84F844000DB01D
:102E700030BD30B597B00625CDE9002300230446C8
:102E800019462A466846CDE90235FDF717FB2A4662
:102E9000C4F8640229466846CDE90455FDF70EFBE7
:102EA0000C23C4F86C022A4619466846CDE906355B
:102EB000FDF704FB1223C4F874022A46194668463B
:102EC000CDE90835FDF7FAFA1823C4F87C022A4642
:102ED00019466846CDE90A35FDF7F0FA1E23C4F815
:102EE00084022A4619466846CDE90C35FDF7E6FA14
:102EF0002423C4F88C022A4619466846CDE90E35CB
:102F0000FDF7DCFA2A23C4F894022A4619466846DB
:102F1000CDE91035FDF7D2FA04253023C4F89C0220
:102F20002A4619466846CDE91235FDF7C7FA34231B
:102F3000CDE9143516AB84F8CC0213E906006846D7
:102F4000FDF7BCFA84F8CD0217B030BD1FB5CDE94E
:102F5000002300220723CDE9022304AB044613E932
:102F600006006846FDF7AAFAE06104B010BD30B56E
:102F70008DB00625CDE900230023044619462A46D4
:102F80006846CDE90235FDF799FA2A46C4F80801EA
:102F900029466846CDE90455FDF790FA0C23C4F89C
:102FA00010012A4619466846CDE90635FDF786FA2E
:102FB0001223C4F80C012A4619466846CDE90835A3
:102FC000FDF77CFA1823CDE90A350CABC4F81401DF
:102FD00013E906006846FDF771FA84F818010DB090
:102FE00030BD30B58DB00925CDE90023002304465E
:102FF0002A4619466846CDE90235FDF75FFA0A23ED
:10300000A0F58070A0622A4619466846CDE90435CD
:10301000FDF754FA08251323A0F58070E0622A46D4
:1030200019466846CDE90635FDF748FA1B237E3878
:1030300020622A4619466846CDE90835FDF73EFA72
:1030400023220123CDE90A237E380CAB606213E909
:1030500006006846FDF732FA003818BF012084F8F0
:1030600030000DB030BD30B587B0CDE90023082564
:10307000002304462A4619466846CDE90235FDF785
:103080001DFACDE9045506ABA06313E906006846B6
:10309000FDF714FAE06307B030BDFFFF30B587B02D
:1030A000CDE900230825002304462A461946684630
:1030B000CDE90235FDF702FACDE90455054B83F859
:1030C000010406AB13E906006846FDF7F7F9206234
:1030D00007B030BD70FCFF1F2DE9F04186B04FF006
:1030E0000808CDE900230023CDE902380DEB0806DE
:1030F000044696E806006846FDF7E0F91023CDE99E
:1031000004380DEB0305203895E80600E0656846B5
:10311000FDF7D4F9A0F12003202B6FF01F07A8BF03
:103120002023BB42B8BF3B46CDF8088096E8060096
:1031300084F82C306846FDF7C1F91823049338440D
:10314000206695E806006846FDF7B8F9C319202BFC
:10315000A8BF2023BB42B8BF3B4684F84C3006B022
:10316000BDE8F0812DE9FF47CDE90023044600F1D9
:1031700023051E264FF0060A0DF10809A6F11E07C9
:10318000A846CDE9027A684699E80600FDF796F967
:10319000C0B23F2807F1060728BF3F20B74208F812
:1031A000010FEED16B780BB901236B701E365A2ECE
:1031B00005F11005E2D14FF0FF320023E2612362F6
:1031C000E262236304B0BDE8F08770B5082592B0D1
:1031D00000260446CDE9002331462A466846CDE95B
:1031E0000265FDF76BF92A46606729466846CDE916
:1031F0000455FDF763F91023A0672A46194668466F
:10320000CDE90635FDF75AF91823C4F884002A469B
:1032100019466846CDE90835FDF750F92023C4F872
:103220008C002A4619466846CDE90A35FDF746F96D
:103230002823C4F894002A4619466846CDE90C357F
:10324000FDF73CF9302384F870002A461946684699
:10325000CDE90E35FDF732F93823CDE9103512AB43
:1032600084F8710013E906006846FDF727F984F831
:10327000586084F89C0012B070BD2DE9F04186B012
:10328000CDE900230825002304462A46194668464E
:10329000CDE90235FDF712F9264684F838004FF0E3
:1032A000060804AFCDE90458684697E80600FDF724
:1032B00005F9063580F30600202DB07606F10206EA
:1032C000F0D10023E3766377E37784F8213006B00A
:1032D000BDE8F0812DE9F04186B0CDE90023044638
:1032E00000F1200600254FF0060802AFCDE9025894
:1032F000684697E80600FDF7E1F806351E38302DE0
:1033000006F8010FF2D108230593049506AB13E9E3
:1033100006006846FDF7D2F80023E362012384F833
:10332000200084F8303006B0BDE8F08110B54FF6CB
:10333000FF710446002019F086F86062C043A06265
:1033400010BD70B500250426044680F8246080F87E
:1033500026504FF6FF71284619F075F80123208496
:1033600084F8256084F827304FF6FF71284619F05D
:103370006AF8608470BD70B5FF210446012019F021
:1033800062F80025072684F82C002663E561FF21FA
:10339000012019F058F8012384F82D006663256296
:1033A000A56384F83C3070BD10B5FF2104460120B0
:1033B00019F049F8FF2184F82400012019F043F89E
:1033C00000230F2284F82500E361A262E36210BDAE
:1033D00030B500228BB000230425CDE90223002361
:1033E000CDE90435C369DA17CDE9003204462A462F
:1033F00002A80021FDF748F803230793236A0695E6
:10340000DA17CDE90032294602A80322FDF73CF87D
:1034100007220123CDE90823A36ADA17CDE9003298
:103420000AAB13E9060002A8FDF72EF8DDE9020158
:103430000BB030BD70B5002290B000230426CDE95A
:1034400002230023344CCDE90436037904EBC30393
:103450000546D3F89C30DA17CDE9003202A832468F
:103460000021FDF711F82B7904EBC3033146D3F8A3
:10347000A030DA17CDE9003202A83246CDE906665F
:10348000FDF702F803260823CDE908362B7904EB73
:10349000C3030821D3F8AC30DA17CDE900320DEBC5
:1034A00001003246FCF7F0FF0B23CDE90A362B79F9
:1034B00004EBC30302A8D3F8B030DA17CDE9003229
:1034C0000B213246FCF7E0FF07260E23CDE90C3630
:1034D0002B7904EBC30302A8D3F8BC300133DA170D
:1034E000CDE900320E213246FCF7CEFF1523CDE99F
:1034F0000E362B7904EBC30402A8D4F8C030013394
:10350000DA17CDE9003210AB13E90600FCF7BCFF77
:10351000DDE9020110B070BDC0A1FF1F70B500222F
:103520008CB00023CDE90223436A03F580730025A4
:103530000926DA170446CDE900322946324602A8A8
:10354000CDE90456FCF7A0FF0A23CDE90636A36AAD
:1035500003F58073DA17CDE9003202A832460A215A
:10356000FCF792FF01261323CDE9083694F82C309E
:103570003246CDE9003502A81321FCF785FF14235C
:10358000CDE90A3694F82D30CDE900350CAB13E9BE
:10359000060002A8FCF778FFDDE902010CB070BD5F
:1035A00070B500228EB00023CDE90223D0F8B830E8
:1035B000044606250026DA17CDE9003231462A46B0
:1035C00002A8CDE90465FCF75FFFD4F8BC30DA1738
:1035D000CDE9003229462A4602A8CDE90655FCF776
:1035E00053FF09250C23CDE90835D4F8C030DA178C
:1035F000CDE9003202A82A460C21FCF745FF15232D
:10360000CDE90A35D4F8C430DA17CDE9003202A882
:103610002A461521FCF738FF1E220123CDE90C2391
:1036200094F8C830CDE900360EAB13E9060002A8C5
:10363000FCF72AFFDDE902010EB070BD30B50022B3
:103640008DB000230625CDE902230023CDE9043502
:10365000D0F8B0300446DA17CDE9003202A82A4685
:103660000021FCF711FFD4F8B430DA17CDE90032AD
:1036700029462A4602A8CDE90655FCF705FF0A258A
:103680000C23CDE90835D4F8B830C3F3090300930F
:10369000002301932A4602A80C21FCF7F5FE16230D
:1036A000CDE90A35D4F8BC30C3F3090300930023F5
:1036B00001930CAB13E9060002A8FCF7E5FEDDE977
:1036C00002010DB030BDFFFFF0B500228DB0002328
:1036D0000625CDE902230023CDE90435D0F8B0302A
:1036E000264FDA170446CDE9003200212A4602A807
:1036F000FCF7CAFE54F8B43FDA17CDE90032294688
:103700002A4602A8CDE90655FCF7BEFE0E2654F85F
:10371000045FFA2D2DDDB5F57A7F2CDD42F21073B2
:103720009D42D4BF02250325B31E089302230993AB
:10373000EB17CDE900530899022202A8FCF7A4FE7A
:1037400057F82520236893FBF2F308220B92DA172F
:10375000CDE900320A960CAB13E906000A360DEBF0
:103760000200FCF791FE222ED1D1DDE902010DB05D
:10377000F0BD0025D8E70125D6E700BF544202007E
:1037800030B500228DB000230625CDE902230023A9
:10379000CDE90435D0F8B4300446DA17CDE900326B
:1037A00002A82A460021FCF76FFED4F8B830DA17D9
:1037B000CDE9003229462A4602A8CDE90655FCF794
:1037C00063FE0A250C23CDE90835D4F8BC30C3F3D9
:1037D00009030093002301932A4602A80C21FCF759
:1037E00053FE1623CDE90A35D4F8C030C3F30903DC
:1037F0000093002301930CAB13E9060002A8FCF729
:1038000043FEDDE902010DB030BD7FB5002200238B
:10381000CDE9022300221023CDE90423436BDA17FC
:10382000CDE9003206AB13E9060002A8FCF72CFE36
:10383000DDE9020107B05DF804FB70B500228AB033
:103840000023CDE9022390F8243008260025044601
:10385000CDE90035324629460DEB0600CDE9045688
:10386000FCF712FE94F825303246CDE9003531469A
:103870000DEB0600CDE90666FCF706FE10220423D8
:10388000CDE90823A36ADA17CDE900320AAB13E9C0
:1038900006000DEB0600FCF7F7FDDDE902010AB0BA
:1038A00070BD70B500228CB00023CDE9022390F8E2
:1038B0002C30082604460025CDE90035324629463D
:1038C0000DEB0600CDE90456FCF7DEFD94F82D3033
:1038D0003246CDE9003531460DEB06000325CDE932
:1038E0000666FCF7D1FD1023CDE90835236BDA1706
:1038F000CDE900320DEB06002A461021FCF7C4FD8D
:103900001323CDE90A35636BDA17CDE900320CAB2E
:1039100013E906000DEB0600FCF7B6FDDDE9020138
:103920000CB070BD70B500228AB00023CDE902232F
:1039300090F84830042600250446CDE9003532468B
:10394000294602A8CDE90456FCF79EFD94F84930BB
:103950003246CDE90035314602A8CDE90666FCF7CE
:1039600093FD0823CDE90833E36CDA17CDE9003283
:103970000AAB13E906000DEB0100FCF785FDDDE95C
:1039800002010AB070BDF0B5002291B00023CDE96C
:103990000223036B082504460026DA17CDE900321E
:1039A00031462A460DEB0500CDE90465FCF76CFDB8
:1039B00094F8343006950427CDE900363A46294676
:1039C0000DEB05000797FCF75FFD0C23CDE90837E9
:1039D000A36BDA17CDE900320DEB05003A460C2156
:1039E000FCF752FD1023CDE90A33A38D1022CDE957
:1039F000003611460DEB0500FCF746FD2023CDE90E
:103A00000C3594F93530DA17CDE900320DEB0500AD
:103A10002A462021FCF738FD28220523CDE90E2374
:103A200094F84430013BDA17CDE9003210AB13E9CA
:103A300006000DEB0500FCF727FDDDE9020111B0E2
:103A4000F0BD70B500228AB00023CDE9022390F9C1
:103A50001A3005260025DA17CDE900320446324631
:103A6000294602A8CDE90456FCF70EFD0223079370
:103A700094F91B300696DA17CDE90032314602A8D8
:103A80000222FCF701FD07220123CDE90823237F51
:103A9000CDE900350AAB13E9060002A8FCF7F4FCF7
:103AA000DDE902010AB070BD70B500228CB00023C0
:103AB000CDE90223C36A082504460026DA17CDE9BA
:103AC000003231462A460DEB0500CDE90465FCF7CE
:103AD000DBFCB4F932303033DA17CDE90032294655
:103AE0002A460DEB0500CDE90655FCF7CDFC102369
:103AF000CDE90835B4F934303033DA17CDE9003286
:103B00000DEB05002A461021FCF7BEFC1822042309
:103B1000CDE90A2394F83030CDE900360CAB13E937
:103B200006000DEB0500FCF7AFFCDDE902010CB06F
:103B300070BD30B5002289B000230825CDE90223ED
:103B40000023CDE90435C3690446DA17CDE9003214
:103B50000DEB05002A460021FCF796FC236ADA17D4
:103B6000CDE90032CDE9065508AB13E906000DEBAF
:103B70000100FCF789FCDDE9020109B030BD30B578
:103B8000002289B00023CDE9022307250023CDE9D7
:103B90000435B0F93C300446DA17CDE9003202A80A
:103BA0002A460021FCF770FCB4F93E30DA17CDE963
:103BB0000032CDE9065508AB13E9060002A8FCF770
:103BC00063FCDDE9020109B030BD2DE9F0410022BE
:103BD00090B00023CDE90223D0F8B030044604278A
:103BE0000026DA17CDE9003231463A4602A8CDE97F
:103BF0000467FCF749FC94F8B83006974FF00108C9
:103C0000CDE900364246394602A8CDF81C80FCF7C3
:103C10003BFCD4F8B4300825DA17CDE90032294648
:103C20003A460DEB0500CDE90857FCF72DFC0C23B7
:103C3000CDE90A3894F8B9304246CDE900360DEBAB
:103C400005000C21FCF720FC1023CDE90C3594F97C
:103C5000BA30DA17CDE900320DEB05002A46102103
:103C6000FCF712FC1823CDE90E35D4F8BC30DA1776
:103C7000CDE9003210AB13E906000DEB0200FCF7B2
:103C800003FCDDE9020110B0BDE8F08170B500224F
:103C90008EB00023CDE9022390F92430013B044685
:103CA00000250426DA17CDE900322946324602A85B
:103CB000CDE90456FCF7E8FB94F92530013BDA170F
:103CC000CDE900323146324602A8CDE90666FCF75E
:103CD000DBFB01260823CDE9083694F826300821BD
:103CE0000DEB0100CDE900353246FCF7CDFB092391
:103CF000CDE90A3694F827303246CDE9003502A8DE
:103D00000921FCF7C1FB1023CDE90C33238CCDE94D
:103D100000350EAB13E9060002A8FCF7B5FBDDE9A0
:103D200002010EB070BD2DE9F041002288B00023E1
:103D3000CDE90223054600F1200700244FF00608D4
:103D400004AE17F9013F1E33DA17CDE90448CDE977
:103D5000003202A896E806000634FCF795FB302CEA
:103D6000EFD10823079395F82030009300230193A7
:103D7000069408AB13E906000DEB0200FCF784FB88
:103D8000DDE9020108B0BDE8F08170B5002288B01D
:103D90000023CDE90223038D002510260446CDE93A
:103DA00000353246294602A8CDE90456FCF76CFBE3
:103DB000638DCDE90666CDE9003508AB13E9060051
:103DC00002A8FCF761FBDDE9020108B070BD70B527
:103DD000002288B00023CDE90223438B00250C2666
:103DE0000446CDE900353246294602A8CDE90456FD
:103DF000FCF74AFBA38BCDE90666CDE9003508AB9D
:103E000013E9060002A8FCF73FFBDDE9020108B058
:103E100070BD7FB500220023CDE9022300231022CC
:103E2000CDE90432828BCDE9002306AB13E906000D
:103E300002A8FCF729FBDDE9020107B05DF804FBED
:103E400070B5002290B00023CDE90223837E0025C7
:103E500001260446CDE900353246294602A8CDE9BF
:103E60000456FCF711FB04230793E37E0696CDE985
:103E70000035314602A804220826FCF705FB05237D
:103E8000CDE90836E369DA17CDE900320DEB06001B
:103E900032460521FCF7F8FA0D23CDE90A36236AEC
:103EA000DA17CDE900320DEB060032460D21FCF7A2
:103EB000EBFA1523CDE90C3694F824303246CDE9DF
:103EC00000350DEB06001521FCF7DEFA1D2202235A
:103ED000CDE90E2394F82530CDE9003510AB13E978
:103EE00006000DEB0600FCF7CFFADDE9020110B089
:103EF00070BD30B500228BB000230525CDE902232B
:103F00000023CDE90435836A013B0446DA17CDE985
:103F1000003202A82A460021FCF7B6FA236BDA1712
:103F2000CDE9003229462A4602A8CDE90655FCF71C
:103F3000ABFA0A220723CDE90823A36BDA17CDE9F0
:103F400000320AAB13E9060002A8FCF79DFADDE98E
:103F500002010BB030BD30B50022A1B00023042512
:103F6000CDE902230023CDE90435036A0446DA17BC
:103F7000CDE9003202A82A460021FCF785FA636ADF
:103F8000DA17CDE9003229462A4602A8CDE90655BE
:103F9000FCF77AFA0823CDE90835A36A0821DA1775
:103FA000CDE900320DEB01002A46FCF76DFA0C2337
:103FB000CDE90A35E36ADA17CDE9003202A82A46CC
:103FC0000C21FCF761FA1023CDE90C35236BDA17CD
:103FD000CDE9003202A82A461021FCF755FA142335
:103FE000CDE90E35636BDA17CDE9003202A82A4617
:103FF0001421FCF749FA1823CDE91035A36BDA1721
:10400000CDE9003202A82A461821FCF73DFA1C230C
:10401000CDE91235E36BDA17CDE9003202A82A4662
:104020001C21FCF731FA2023CDE91435236CDA1773
:10403000CDE9003202A82A462021FCF725FA2423E4
:10404000CDE91635636CDA17CDE9003202A82A46AD
:104050002421FCF719FA2823CDE91835A36CDA17C7
:10406000CDE9003202A82A462821FCF70DFA2C23BC
:10407000CDE91A35E36CDA17CDE9003202A82A46F9
:104080002C21FCF701FA06253023CDE91C35A36D60
:10409000DA17CDE9003202A82A463021FCF7F4F9FC
:1040A0003623CDE91E35236DDA17CDE9003220AB7A
:1040B00013E9060002A8FCF7E7F9DDE9020121B0E7
:1040C00030BD70B500228EB000230425CDE9022357
:1040D0000023CDE90435036A0446DA17CDE900323E
:1040E00002A82A460021FCF7CFF9636ADA17CDE966
:1040F000003229462A4602A8CDE90655FCF7C4F944
:10410000A36A0826DA17CDE9003231462A460DEBBC
:104110000600CDE90865FCF7B7F90C23CDE90A35AF
:10412000E36ADA17CDE900320DEB06002A460C21CE
:10413000FCF7AAF91023CDE90C36236BDA17CDE989
:1041400000320EAB13E906000DEB0200FCF79CF900
:10415000DDE902010EB070BD2DE9F041002288B00A
:104160000023CDE9022390F8383000260825CDE958
:10417000003604462A4631460DEB0500CDE90465BC
:10418000FCF782F94FF0060806AFA37ECDE906588A
:10419000CDE9003602A897E806000635FCF774F969
:1041A000202D04F10204F0D1DDE9020108B0BDE8E0
:1041B000F08170B5002294B00023CDE9022390F87D
:1041C0002530062504460026CDE900362A4631462C
:1041D00002A8CDE90465FCF757F994F826302A4681
:1041E000CDE90036294602A8CDE90655FCF74CF981
:1041F0000C23CDE9083594F82730013BDA17CDE9D7
:10420000003202A82A460C21FCF73EF91223CDE920
:104210000A3594F831302A46CDE9003602A8122139
:10422000FCF732F91823CDE90C3594F832302A46E0
:10423000CDE9003602A81821FCF726F91E23CDE9A6
:104240000E3594F83330013BDA17CDE9003202A87D
:104250002A461E21FCF718F924220823CDE9102351
:10426000E36BDA17CDE9003208220DEB02002421BE
:10427000FCF70AF92C210423CDE9121394F84030FD
:10428000CDE9003614AB13E9060002A8FCF7FCF8F0
:10429000DDE9020114B070BD30B500228BB00023FF
:1042A0000725CDE902230023CDE90435436F0446F9
:1042B000DA17CDE9003202A82A460021FCF7E4F81B
:1042C000A36FDA17CDE9003229462A4602A8CDE9C4
:1042D0000655FCF7D9F80E220423CDE90823236FF5
:1042E000013BDA17CDE900320AAB13E9060002A858
:1042F000FCF7CAF8DDE902010BB030BD70B5002251
:104300008CB00023CDE90223438C0C260025044603
:10431000CDE900353246294602A8CDE90456FCF71E
:10432000B3F8A38C3246CDE90035314602A8CDE979
:104330000666FCF7A9F81823CDE90836E38C324667
:10434000CDE9003502A81821FCF79EF82423CDE919
:104350000A36238DCDE900350CAB13E9060002A81F
:10436000FCF792F8DDE902010CB070BD7FB50022C8
:104370000023CDE9022300220823CDE90423036AA8
:10438000DA17CDE9003206AB13E906000DEB0200A7
:10439000FCF77AF8DDE9020107B05DF804FB70B5BF
:1043A000002288B00023CDE9022390F820300025B8
:1043B00008260446CDE90035324629460DEB0600B5
:1043C000CDE90456FCF760F894F82430CDE9066690
:1043D000CDE9003508AB13E906000DEB0100FCF751
:1043E00053F8DDE9020108B070BD30B5002289B094
:1043F00000230825CDE902230023CDE90435436DD0
:104400000446DA17CDE900320DEB05002A460021FB
:10441000FCF73AF8A36DDA17CDE90032CDE906557D
:1044200008AB13E906000DEB0100FCF72DF8DDE900
:10443000020109B030BD70B500228CB00023CDE977
:10444000022390F92630072504460026DA17CDE925
:10445000003231462A4602A8CDE90465FCF714F87B
:1044600094F92730DA17CDE9003229462A4602A806
:10447000CDE90655FCF708F80E220523CDE90823FF
:1044800094F82A3002A8CDE9003605220E21FBF768
:10449000FBFF13210423CDE90A13E36ADA17CDE900
:1044A00000320CAB13E9060002A8FBF7EDFFDDE9D3
:1044B00002010CB070BD30B5002289B00023CDE9F7
:1044C00002230B250023CDE90435D0F81C32044625
:1044D000DA17CDE9003202A82A460021FBF7D4FF03
:1044E000D4F82032DA17CDE90032CDE9065508AB11
:1044F00013E9060002A8FBF7C7FFDDE9020109B0D6
:1045000030BD2DE9F04100228EB00023CDE9022319
:10451000062400F12B0526460DF11008A31FCDE956
:10452000043615F8013F013BDA17CDE9003202A845
:1045300098E80600FBF7A8FFAB7800272146CDE9F5
:104540000037324602A8CDE90646FBF79DFFA31DC2
:10455000CDE908362B790899CDE90037324602A813
:10456000FBF792FF04F10C03CDE90A36AB790A9907
:10457000CDE90037324602A8FBF786FF04F11203AB
:10458000CDE90C362B7CCDE900370EAB13E90600E4
:1045900002A81E34FBF778FF422CBFD1DDE90201EF
:1045A0000EB0BDE8F08170B500228EB00023CDE9D9
:1045B000022390F83C30002504460526CDE900355D
:1045C0003246294602A8CDE90456FBF75DFF94F870
:1045D0003D303246CDE90035314602A8CDE90666C8
:1045E000FBF752FF01260A23CDE9083694F83E3046
:1045F0003246CDE9003502A80A21FBF745FF0B231F
:10460000CDE90A3694F83F303246CDE9003502A8AC
:104610000B21FBF739FF0C220423CDE90C23236C7B
:10462000013BDA17CDE900320EAB13E9060002A810
:10463000FBF72AFFDDE902010EB070BD70B5002264
:104640008CB00023CDE90223C36A08260446002566
:10465000DA17CDE900320DEB060032462946CDE9E6
:104660000456FBF711FF236BDA17CDE900320DEB8F
:10467000060032463146CDE90666FBF705FF042603
:104680001023CDE9083694F834303246CDE90035B0
:1046900002A81021FBF7F8FE1423CDE90A3694F89E
:1046A0003530CDE900350CAB13E9060002A8FBF765
:1046B000EBFEDDE902010CB070BD70B5002290B0D8
:1046C0000023CDE90223B0F9403003F5004304464E
:1046D00000251026DA17CDE900322946324602A815
:1046E000CDE90456FBF7D0FE636C0696DA17072671
:1046F000CDE9003202A8324610210796FBF7C4FE2E
:104700001723CDE90836A36CDA17CDE9003202A8E9
:1047100032461721FBF7B8FE1E23CDE90A36E36CBB
:10472000DA17CDE9003202A832461E21FBF7ACFEB3
:1047300004262523CDE90C3694F864303246CDE9C1
:10474000003502A82521FBF79FFE2923CDE90E366F
:1047500094F86530CDE9003510AB13E9060002A8E6
:10476000FBF792FEDDE9020110B070BD70B50022CA
:104770008CB00023CDE90223C36A08260446002535
:10478000DA17CDE900320DEB060032462946CDE9B5
:104790000456FBF779FE236BDA17CDE900320DEBF7
:1047A000060032463146CDE90666FBF76DFE04266B
:1047B0001023CDE9083694F834303246CDE900357F
:1047C00002A81021FBF760FE1423CDE90A3694F805
:1047D0003530CDE900350CAB13E9060002A8FBF734
:1047E00053FEDDE902010CB070BD30B5002295B07A
:1047F00000230825CDE902230023CDE90435436FCA
:104800000446DA17CDE900320DEB05002A460021F7
:10481000FBF73AFEA36FDA17CDE9003229462A46A4
:104820000DEB0500CDE90655FBF72EFE1023CDE973
:104830000835D4F88430DA17CDE900320DEB0500E5
:104840002A461021FBF720FE1823CDE90A35D4F8BB
:104850008C30DA17CDE900320DEB05002A4618211D
:10486000FBF712FE2023CDE90C35D4F89430DA178B
:10487000CDE900320DEB05002A462021FBF704FEAE
:104880002823CDE90E3594F97030DA17CDE90032DE
:104890000DEB05002A462821FBF7F6FD3023CDE974
:1048A000103594F97130DA17CDE900320DEB0500BF
:1048B0002A463021FBF7E8FD3823CDE9123594F97B
:1048C0009C30DA17CDE9003214AB13E906000DEB8A
:1048D0000200FBF7D9FDDDE9020115B030BD2DE97D
:1048E000F047002286B00023CDE90223044600F100
:1048F000230500F1280900274FF0060A04AE15F839
:10490000013F4FF00008CDE9047ACDE9003802A854
:1049100096E80600FBF7B8FD4D4507F10607EED116
:1049200033341E25062714F8013FCDE90457CDE99D
:10493000003802A896E806000635FBF7A5FD3C2DD9
:10494000F1D1DDE9020106B0BDE8F0877FB50022B4
:104950000023CDE9022300220823CDE90423C36903
:10496000DA17CDE9003206AB13E906000DEB0200C1
:10497000FBF78AFDDDE9020107B05DF804FB30B505
:10498000002289B00023CDE9022307250023CDE9C9
:104990000435B0F91A300446DA17CDE9003202A81E
:1049A0002A460021FBF770FDB4F91C30DA17CDE977
:1049B0000032CDE9065508AB13E9060002A8FBF763
:1049C00063FDDDE9020109B030BDF0B5002289B018
:1049D00000230827CDE902230023CDE90437C36D66
:1049E0002033DA17CDE9003204AE96E8060004461B
:1049F0000DEB0200FBF748FD1023CDE9063794F9D3
:104A00002C302033DA17CDE9003206AD95E80600E8
:104A10000DEB0200FBF738FD236E04972033DA1705
:104A2000CDE9003296E806000DEB0100FBF72CFD06
:104A30001823069394F94C302033DA17CDE900326D
:104A40000DEB070095E80600FBF71EFDDDE902010E
:104A500009B0F0BD70B500228AB00023CDE9022371
:104A6000C36908260025DA17CDE90032044632462C
:104A700029460DEB0600CDE90456FBF705FD04239E
:104A80000793B4F920300696DA17CDE900323146A3
:104A90000DEB06000422FBF7F7FC0C221023CDE9F6
:104AA0000823B4F85030CDE900350AAB13E906000D
:104AB0000DEB0600FBF7E8FCDDE902010AB070BD72
:104AC00030B5002289B000230825CDE90223002358
:104AD000CDE90435836C0446DA17CDE900320DEBDD
:104AE00005002A460021FBF7CFFCE36C1833DA17E8
:104AF000CDE90032CDE9065508AB13E906000DEB10
:104B00000100FBF7C1FCDDE9020109B030BD30B5A1
:104B1000002291B000230A25CDE902230023CDE92C
:104B20000435436A03F5FA730446DA17CDE9003217
:104B300002A82A460021FBF7A7FCA36A03F5FA7333
:104B4000DA17CDE9003229462A4602A8CDE90655F2
:104B5000FBF79AFC08251423CDE90835E36A643392
:104B6000DA17CDE900320DEB05002A461421FBF7D8
:104B70008BFC1C23CDE90A35236B6433DA17CDE9AE
:104B800000320DEB05002A461C21FBF77DFC0725B2
:104B90002423CDE90C35636B2433DA17CDE90032D9
:104BA00002A82A462421FBF76FFC2B23CDE90E3502
:104BB000A36B2433DA17CDE9003210AB13E90600FA
:104BC00002A8FBF761FCDDE9020111B030BD30B590
:104BD000002289B000230825CDE902230023CDE976
:104BE0000435C36D0446DA17CDE900320DEB05003C
:104BF0002A460021FBF748FC236EDA17CDE9003284
:104C0000CDE9065508AB13E906000DEB0100FBF7F3
:104C10003BFCDDE9020109B030BD70B500228AB06D
:104C20000023CDE90223B0F9A43609250446002665
:104C3000DA17CDE9003231462A4602A8CDE90465EB
:104C4000FBF722FCB4F9A636DA17CDE90032294683
:104C50002A4602A8CDE90655FBF716FC12220123CD
:104C6000CDE9082394F89C36CDE900360AAB13E968
:104C7000060002A8FBF708FCDDE902010AB070BDDE
:104C800030B500228FB000230825CDE90223002390
:104C9000CDE90435836B0446DA17CDE900320DEB1C
:104CA00005002A460021FBF7EFFBE36BDA17CDE99D
:104CB000003229462A460DEB0500CDE90655FBF7E3
:104CC000E3FB1023CDE90835236C2B44DA17CDE93B
:104CD00000320DEB05002A461021FBF7D5FB182307
:104CE000CDE90A3594F94530DA17CDE900320DEBFC
:104CF00005002A461821FBF7C7FB2023CDE90C3518
:104D000094F94430DA17CDE900320EAB13E906000E
:104D10000DEB0200FBF7B8FBDDE902010FB030BD7F
:104D200070B5002298B00023CDE90223D0F8643298
:104D3000062504460026DA17CDE9003231462A4618
:104D400002A8CDE90465FBF79FFBD4F86C32DA17B3
:104D5000CDE9003229462A4602A8CDE90655FBF7DF
:104D600093FB0C23CDE90835D4F87432DA17CDE97A
:104D7000003202A82A460C21FBF786FB1223CDE95C
:104D80000A35D4F87C32DA17CDE9003202A82A4677
:104D90001221FBF779FB1823CDE90C35D4F88432C6
:104DA000DA17CDE9003202A82A461821FBF76CFB7E
:104DB0001E23CDE90E35D4F88C32DA17CDE9003256
:104DC00002A82A461E21FBF75FFB2423CDE91035FC
:104DD000D4F89432DA17CDE9003202A82A46242109
:104DE000FBF752FB2A23CDE91235D4F89C32DA17AF
:104DF000CDE9003202A82A462A21FBF745FB04250B
:104E00003023CDE9143594F8CC322A46CDE900366A
:104E100002A83021FBF738FB3423CDE9163594F88E
:104E2000CD32CDE9003618AB13E9060002A8FBF736
:104E30002BFBDDE9020118B070BD7FB50022002315
:104E4000CDE9022300220723CDE90423C369DA1741
:104E5000CDE9003206AB13E9060002A8FBF714FB0C
:104E6000DDE9020107B05DF804FB30B500228FB028
:104E700000230625CDE902230023CDE90435D0F82F
:104E800008310446DA17CDE9003202A82A4600218B
:104E9000FBF7FAFAD4F81031DA17CDE900322946D7
:104EA0002A4602A8CDE90655FBF7EEFA0C23CDE918
:104EB0000835D4F80C31DA17CDE9003202A82A46B9
:104EC0000C21FBF7E1FA1223CDE90A35D4F81431AD
:104ED000DA17CDE9003202A82A461221FBF7D4FAEC
:104EE0001823CDE90C3594F91831DA17CDE90032E1
:104EF0000EAB13E9060002A8FBF7C6FADDE90201D2
:104F00000FB030BD70B500228EB00023CDE9022372
:104F1000836A03F5807309260025DA170446CDE974
:104F200000322946324602A8CDE90456FBF7ACFA16
:104F30000A23CDE90636E36A03F58073DA17CDE973
:104F4000003202A832460A21FBF79EFA08261323F4
:104F5000CDE90836236A7E33DA17CDE900320DEB4E
:104F6000060032461321FBF78FFA1B23CDE90A36E0
:104F7000636A7E33DA17CDE900320DEB0600324664
:104F80001B21FBF781FA23220123CDE90C2394F89E
:104F90003030CDE900350EAB13E906000DEB06000D
:104FA000FBF772FADDE902010EB070BD30B50022E8
:104FB00089B000230825CDE902230023CDE904357B
:104FC000836B0446DA17CDE900320DEB05002A4663
:104FD0000021FBF759FAE36BDA17CDE90032CDE98E
:104FE000065508AB13E906000DEB0100FBF74CFA80
:104FF000DDE9020109B030BD30B500228DB00023DB
:105000000825CDE902230023CDE90435C36C2B44E8
:10501000044650F82330DA17CDE900320DEB0500D5
:105020002A460021FBF730FAE36C0A33294654F88C
:105030002330DA17CDE900320DEB05002A46CDE921
:105040000655FBF721FA1023CDE90835E36C0C3344
:105050000DEB050054F82330DA17CDE900321021AA
:105060002A46FBF711FA1823CDE90A35E36C0E3313
:1050700054F82330DA17CDE900320CAB13E90600FF
:105080000DEB0200FBF700FADDE902010DB030BDC7
:10509000F0B500228DB00023CDE90223436B1B88BD
:1050A000092600243246CDE900340546214602A8EF
:1050B000CDE90446FBF7E8F9072307936B6B0696E7
:1050C00093F95830DA17CDE900323146072202A8A9
:1050D000FBF7DAF9062708AE07FB04F31033CDE936
:1050E00008376B6B03EB440302A8B3F9223020337B
:1050F000DA17CDE90032013496E80600FBF7C4F96F
:10510000042CE9D128220523CDE90A236B6BDB6D42
:10511000DA17CDE900320CAB13E9060002A8FBF761
:10512000B3F9DDE902010DB0F0BDFFFF30B500229B
:1051300089B00023CDE90223104B93F80124082500
:1051400000230446CDE9002319462A460DEB05004D
:10515000CDE90435FBF798F9236ADA17CDE9003277
:10516000CDE9065508AB13E906000DEB0100FBF78E
:105170008BF9DDE9020109B030BD00BF70FCFF1FF3
:1051800070B500228CB00023CDE9022390F92130C4
:10519000002504460726DA17CDE9003229463246B3
:1051A00002A8CDE90456FBF76FF994F87130069622
:1051B0000426CDE90035324602A807210796FBF701
:1051C00063F90B23CDE9083694F8C1303246CDE9B6
:1051D000003502A80B21FBF757F90F221023CDE968
:1051E0000A2394F8C430CDE900350CAB13E906006E
:1051F00002A8FBF749F9DDE902010CB070BDFFFF21
:105200002DE9F7430446DFF8508054F8043B134E71
:105210005B6A98470F254FF000096F1C58F8041B74
:105220000E48C6F80490B76016F05CFE09232A46C3
:105230000A4800930021132316F02FFB0C3514238A
:1052400054F8041F05487360B76016F04BFE3F2DFD
:10525000E3D103B0BDE8F08394410200E41D0020D7
:105260004FF4DC7343630379012B10B5044601D17D
:1052700015F0B0FF0023237610BD70B50421002582
:105280001026044680F82E1080F82C6080F83050EC
:1052900080F832502B462A46304615F09DF90821F9
:1052A000606284F82D6084F82F1084F8315084F8FF
:1052B000336033462A46304615F08EF9E561A06228
:1052C00070BDC3690133032BC3BF0023C361C36C2B
:1052D000C361C4BF83F00103C3647047002990F821
:1052E000243004DD83F0010380F824307047184433
:1052F00090F8253043B1027F827683F0010380F875
:1053000025300023037770471A46F5E7C36A042B5C
:1053100010B505D1836A0B4483F30403836210BD87
:10532000012BCCBF012200221044CCBF0224002458
:1053300090F824201C1BA30042FA03F3194401F047
:105340000F012CB922F00F02114380F82410E6E778
:1053500002F00F0202EB011280F82420DFE7FFFFCA
:10536000037910B5012B03BF064B074C074A084CC5
:105370001DBF084B0849094A1946C0E90243C0E964
:10538000041210BDA01102007B0E0200830E020069
:10539000910E0200A10E0200B20E0200C40E020025
:1053A00070B58AB00825CDE90023002304461946CC
:1053B000C66C2A466846CDE90235FBF77FF82E44D5
:1053C0002A4644F826002946E66C6846CDE904558D
:1053D000FBF774F80A36102344F826002A461946CB
:1053E0006846CDE90635E66CFBF768F81823CDE989
:1053F00008350C360AAB13E9060044F82600684667
:10540000E56CFBF75BF8E36C08330E3554F823309A
:1054100044F825001BB9236820465B6898470AB00A
:1054200070BDFFFF044B997921B95A79D97182F087
:1054300001025A71704700BF2CA7FF1F0020704760
:1054400010B50A460C464FF41051FBF706F8002839
:1054500003DBA042A8BF204610BD0020FCE7FFFFF1
:10546000102910B510D8094C182303FB01446368B8
:105470009A4203DBA3689342A8BF134650F8212049
:105480009A4218BF40F8213010BD00BFB02502007D
:1054900010B564210446012016F0D5FFA042CCBF10
:1054A0000020012010BD80397F23890291FBF3F198
:1054B000484320F47F7020F003007047FF2903D198
:1054C000003818BF012070470020704710B4044610
:1054D000002C084606DDCC1813461946621E10BC87
:1054E000FBF792B810BC704700F0010001EB80118F
:1054F000014816F0C4BB00BFE41D002010B400F04A
:1055000001009DF80840029403EB801301EB801129
:1055100010BC014816F020BBE41D002010B49DF81B
:105520000840013400F00100E4B2029403EB801360
:1055300001EB801110BC014816F00EBBE41D0020E9
:1055400000F00100D31001EB801101EBC311054BFA
:10555000186802F0070201239340425C134343544E
:10556000704700BFE41D00202DE9F0410A4FDFF82D
:105570002C800C460026062390FBF3F5AE4205DB9B
:1055800021460648BDE8F04116F006BD39464046C2
:1055900016F0A8FC0136F1E79F110200E41D00207F
:1055A00010B400F00100054C01EB80106060A260B7
:1055B0002046194610BC16F0EFBC00BFE41D0020C9
:1055C000034B53F820000028D4BF0020012070476F
:1055D000B8A1FF1F002070470020704700207047CF
:1055E000002070470020704700207047002070475F
:1055F0000020704700207047704770477047704721
:1056000070477047704770477047704770B5002209
:1056100098B00023CDE90223436C044600260725F9
:10562000DA17CDE9003231462A4602A8CDE90465F1
:10563000FAF72AFFE36B0695013B0525DA17CDE95A
:10564000003202A82A4607210795FAF71DFF0C230E
:10565000CDE90835E36C013BDA17CDE9003202A849
:105660002A460C210425FAF70FFF1123CDE90A354C
:1056700094F868302A46CDE9003602A81121FAF7DD
:1056800003FF1523CDE90C3594F869302A46CDE99E
:10569000003602A81521FAF7F7FE19220823CDE9F2
:1056A0000E232279214B53F8323083F30803DA17A3
:1056B000CDE9003208220DEB02001921FAF7E4FED1
:1056C0002123CDE9103594F86A302A46CDE9003619
:1056D00002A82121FAF7D8FE2523CDE9123594F846
:1056E0006B302A46CDE9003602A82521FAF7CCFE18
:1056F00029210623CDE91413636DDA17CDE90032B1
:1057000002A806222921FAF7BFFE2F23CDE916357C
:10571000236ADA17CDE9003218AB13E9060002A8B4
:10572000FAF7B2FEDDE9020118B070BD94A0FF1FC8
:1057300070B5002588B005260446CDE9002329462A
:1057400032466846CDE90256FAF7B8FE0223A07643
:105750001A463146684605930496FAF7AFFE0722CB
:105760000123CDE9062308AB13E90600E07668467D
:10577000FAF7A4FE94F91B30401B18BF0120022B3E
:1057800008BF94F91A5020770CBF01232B46A3774A
:10579000657708B070BDFFFFF0B50379234D012B8D
:1057A00085B0044635D115F053FD002831D0D4E939
:1057B000086715F05DFD19F053F832463B4618F0C6
:1057C00013FF2B680193226B019B0646A06A9B1A6C
:1057D00040F2EE220F4601309342C4E90867A0620E
:1057E0001FD919F03DF802460B463046394619F0EC
:1057F000DBF919F05FFB15F055FD00230022C4E929
:1058000008230023A3622B680393039BE0622363B6
:1058100007E02B680293226B029B9B1A044A934277
:1058200001D805B0F0BD0023E362FAE7681E00204E
:10583000A086010090F850308B421CBF0023836586
:1058400090F8403018BF80F850108B421EBF0023E4
:1058500080F8401083647047F0B5002480F8384029
:105860004E6890F83830A5B2AE4208D8B1F90020A1
:10587000426113B1131E18BF01230370F0BDD70797
:1058800008D504355F1C0C3331F9155080F8387099
:1058900020F8135052080134E3E7F8B505460C46EA
:1058A0008E18B44200D1F8BD284616F013FE14F845
:1058B000017B874203D03946284616F01FFE01358A
:1058C000EFE770B50C468D18461AAC4200D170BD9A
:1058D000A01916F0FFFD04F8010BF6E770B5184E9D
:1058E000356855BB6C2016F061FF1649044612223C
:1058F000223016F029FE2422294604F1340016F045
:10590000F7FE04230822294604F16100E36584F8C8
:10591000585084F8605016F0EBFE42F28D0363603D
:105920004FF48033A3607823E56025616561A5614C
:10593000E56184F8205023803460306870BD00BF7A
:10594000F8ECFF1F482702000E4B1B68436130B57F
:1059500009B9C16001616FF00F0400F1200300F18B
:105960003202241A33F9025F002D00DC09B944F831
:1059700013109342F6D190F8603083F0010380F861
:10598000603030BD28A3FF1F2DE9F74F0446019179
:1059900012B10021FFF7D8FF634BD3F8008004F168
:1059A000200904F1180604F1340000274FF0010C1F
:1059B0004FF0640A39F9022F002A5ED132700137A4
:1059C000092F06F1010600F10400F3D1BCF1000F2C
:1059D00003D001212046FFF7B7FF019B002B49D0E0
:1059E000E07A04EB8005EB68002B3CD0E16D0029E8
:1059F00039D04E4AA8EB030303FB01F6964282BF5F
:105A00000022E2602261C0F1030204EB82025268CC
:105A10004AB343B3ED682B449B1A5B08434A4B439C
:105A2000934228BF134640F60555AB4238BF2B467C
:105A30006569B2FBF3F22280A8EB0502B3FBF1F13A
:105A4000B2EB610FC8BFD21A636082EAE2734E10F4
:105A5000A3EBE2739E4206DD042B04DD002A5FDD2A
:105A6000013A2A44626180F00100E07204EB800494
:105A7000C4F80C8003B0BDE8F08F6169036831DDC4
:105A8000D4F804B00BFB03F5B5FBF2F50D4494F923
:105A9000581099B1082F11D0002B03F0010EB8BF98
:105AA000CEF1000EBEF1010F08D19A42C1BF0BFB2F
:105AB00001F1B1FBFAF1B1FBF2F16D18454596BF6A
:105AC000012100210133317098BF0360BCF1000F48
:105AD0003FF475AF03689342D4BF4FF0000C4FF012
